:1012A8002564003B000A0012345678EDCBA987125A
:1012B80034567801FE01FE00000001FFFFFFFFFF2A
:0112C800FF26
:1011490088000029000900A7006E8808005900A539
:10115900006300B888100036003A00E700EE8818EE
:10116900009E0097002C00C988200013008B008B7B
:10117900007B82280000822A0000822C0000822E37
:06118900000082300000AE
:04133E007F2BDFFE24
:011342002288
:1012C900D3EF9400EE940040147D6E7C00ED1D7008
:0D12D900011CED4C70F7EF1F70E61E80E366
:0112E60022E5
:100003001212561211901213371213182097092047
:1000130096062095030200FF7FBC7E021212C920C0
:0B00230097092096062095030200FFBD
:10002E00D293E478AEF208F2E478ACF208F2D29011
:10003E0012133E78ADE22401F218E23400F2C30846
:10004E00E2940E18E26480948040E3E478ACF20807
:10005E00F2C29012133E78ADE22401F218E234009F
:10006E00F2C308E294BA18E26480948040E378AF59
:10007E00E22401F218E23400F2C308E2946418E2BA
:10008E006480948040A27FF47E011212C9E478AE9F
:10009E00F208F2E478ACF208F2D29012133E78AD88
:1000AE00E22401F218E23400F2C308E2940518E2E9
:1000BE006480948040E3E478ACF208F2C2901213AC
:1000CE003E78ADE22401F218E23400F2C308E29465
:1000DE00C318E26480948040E378AFE22401F21802
:1000EE00E23400F2C308E2949618E26480948040F1
:0100FE00A25F
:1000FF007BFE7A00793A7F52120FF978A7EFF26000
:10010F0012121256121190121337121318E4F580AF
:10011F0002000F7BFE7A00793A120D9D78A7EFF25D
:10012F00600302000FE478A8F278A8E2FFC39404FA
:10013F005046743A2FF8E2FD7C0078AAECF208EDF5
:10014F00F2EF25E02432F8ECF208EDF27BFF7A12A1
:10015F0079A878A8E225E02432F8E2FF08E278B324
:10016F00CFF208EFF21204817BFF7A1279AB1204FF
:10017F008178A8E204F280B17BFF7A1279AD120484
:10018F0081E478A8F278A8E2FF25E02432F8E2FCB7
:10019F0008E2FDEF25E02401F9E3B5050E19E3B5FB
:1001AF0004097828E4F20804F28008E47828F208B9
:1001BF00F2800978A8E204F2E2B404C9E478A8F264
:1001CF0078A8E2FF25E02432F8E2FC08E2FDEF25F3
:1001DF00E02409F9E3B5050E19E3B50409782AE41B
:1001EF00F20804F28008E4782AF208F2800978A86D
:1001FF00E204F2E2B404C9E478A8F278A8E2FF2599
:10020F00E02432F8E2FC08E2FDEF25E02411F9E3E7
:10021F00B5050E19E3B50409782CE4F20804F28051
:10022F0008E4782CF208F2800978A8E204F2E2B42C
:10023F0004C9E478A8F278A8E2FF25E02432F8E2B6
:10024F00FC08E2FDEF25E02419F9E3B5050E19E3EB
:10025F00B50409782EE4F20804F28008E4782EF24F
:10026F0008F2800978A8E204F2E2B404C9E478A89D
:10027F00F278A8E2FF25E02432F8E2FC08E2FDEF75
:10028F0025E02421F9E3B5050E19E3B5040978300B
:10029F00E4F20804F28008E47830F208F28009787A
:1002AF00A8E204F2E2B404C97829E26401700218EA
:1002BF00E2602F782BE26401700218E26024782D3F
:1002CF00E26401700218E26019782FE26401700293
:1002DF0018E2600E7831E26401700218E2600302E6
:0202EF0003D832
:1002F100D293E478AEF208F2E478ACF208F2D2904C
:1003010012133E78ADE22401F218E23400F2C30880
:10031100E2940E18E26480948040E3E478ACF20841
:10032100F2C29012133E78ADE22401F218E23400D9
:10033100F2C308E294BA18E26480948040E378AF93
:10034100E22401F218E23400F2C308E2946418E2F4
:100351006480948040A27FF47E011212C9E478AED9
:10036100F208F2E478ACF208F2D29012133E78ADC2
:10037100E22401F218E23400F2C308E2940518E223
:100381006480948040E3E478ACF208F2C2901213E6
:100391003E78ADE22401F218E23400F2C308E2949F
:1003A100C318E26480948040E378AFE22401F2183C
:1003B100E23400F2C308E2949618E264809480402B
:1003C100A2E47828F208F208F208F208F208F2082A
:0703D100F208F208F208F245
:1003D8007BFE7A00793A120E3C78A7EFF2600302AE
:1003E800000F78B574FEF2087400F208743AF27BD4
:1003F800FF7A1279C37D017F60120EDB78A7EFF2D6
:10040800600302000F7BFF7A1279AF7F01120A891D
:0704180078A7EFF202000FCC
:101256007580FFE4F59075B0FF75A0FE7589217560
:101266009850758DF4758BF4F58CF58AD28CD2A9CD
:0B127600D28ED299D2AFD2ACD2982217
:1012E700D3EF9400EE940040147D6E7C00ED1D70EA
:0D12F700011CED4C70F7EF1F70E61E80E348
:0113040022C6
:0C0FF90078B0EFF208EBF208EAF208E929
:101005001213057D077F0D12121B7D037F1412132A
:101015002A78B0E278B6F278D17401F20874FEF25B
:10102500087400F20874B6F20874FEF2087400F24F
:101035000874B4F27A0079B612079BEF703478B56C
:10104500E26410700218E2702978B6E2FE78B1E227
:10105500FB08E2FA08E2F9EE120B9D78B7E2FE789A
:10106500B1E2FB08E2FA08E2F9900001EE120BAFDB
:0410750080027FFE78
:011079002254
:0A0D9D0078B0EBF208EAF208E9F280
:100DA700E478B4121305E4FD7F0D12121B7D807FDA
:100DB7000E12130A78B77493F2087420F278D1747C
:100DC70002F20874FEF2087400F20874B7F20874AD
:100DD700FEF2087400F20874B5F27BFE7A0079B768
:100DE7007F0C12079F78B3EFF2703EFF74B72FF8AE
:100DF700E2FE78B0E2FB08E2FA08E2F98F82758337
:100E070000EE120BAF78B4E2FE74B72FF8E2FDEEF6
:100E17006D78B4F20FEFB404D374B72FF8E2FF780C
:100E2700B4E26F60041874FEF27D807F0E12132AFD
:040E370078B3E2FFAB
:010E3B002294
:0A0E3C0078B0EBF208EAF208E9F2E0
:100E460078B57493F2087470F2E478BBF2FF78B068
:100E5600E2FB08E2FA08E2F98F82758300120B7052
:100E6600FE74B72FF8EEF278BBE2FE8F8275830030
:100E7600120B70FDEE6D78BBF20FEFB404D078CB99
:100E860074FEF2087400F20874BCF27BFE7A0079F4
:100E9600B57D07120D0A12130678D17409F208748B
:100EA600FEF2087400F20874B5F20874FEF20874D3
:100EB60000F20874B3F27BFE7A0079B57F0C120754
:100EC6009FEF700E78B4E26418700218E27003FFA8
:040ED60080027FFE19
:010EDA0022F5
:0A0EDB0078B2EBF208EAF208E9F23F
:100EE50078BBEFF208EDF2E4FF78B2E2FB08E2FA34
:100EF50008E2F98F82758300120B70FE74BD2FF81E
:100F0500EEF20FEFB406E2E4FF78B5E2FB08E2FA91
:100F150008E2F98F82758300120B70FE74C32FF8F7
:100F2500EEF20FEFB406E278D1740CF20874FEF21B
:100F3500087400F20874BBF20874FEF2087400F23B
:100F45000874B9F27BFE7A0079BB7F0E12079F7891
:100F5500B8EFF270097F081211DAEF20E30578B8CF
:070F650074FEF278B8E2FF10
:010F6C002262
:0A107A00784EEBF208EAF208E9F202
:1010840078537430F208EFF278CB74FEF2087400EF
:10109400F2087455F27A007953120D0678D174046B
:1010A400F20874FEF2087400F2087453F20874FE35
:1010B400F2087400F2087451F27BFE7A0079537FCF
:1010C4000C12079FEF702C7852E26490700218E2C1
:1010D4007021FE74532EF8E2FD784EE2FB08E2FA2A
:1010E40008E2F98E82758300ED120BAF0EEEB41098
:0510F400E280027FFE16
:0110F90022D4
:0A0A890078B0EBF208EAF208E9F297
:100A930078B574A0F208EFF278CB74FEF208740014
:100AA300F20874B7F27BFE7A0079B57D02120D0A63
:100AB30078D17404F20874FEF2087400F20874B575
:100AC300F20874FEF2087400F20874B3F27BFE7A43
:100AD3000079B57F0C12079FEF701478B4E26404B9
:100AE300700218E2700978B5E2540F640A60027F5D
:100AF300FEEF7078FE78B0E2FB08E2FA08E2F98EC6
:100B030082758300120B70FD74B52EF8EDF20EEEB4
:100B1300B410E278CB74FEF2087400F20874C5F2E4
:100B23007BFE7A0079B57D10120D0A78D17412F22A
:100B33000874FEF2087400F20874B5F20874FEF249
:100B4300087400F20874B3F27BFE7A0079B57F0C67
:100B530012079FEF701478B4E26404700218E27015
:0C0B63000978B5E2540F640A60027FFEBE
:010B6F002263
:0E0C48007866EBF208EAF208E9F27865EDF260
:100C5600786BEFF208ED120CF412077AEF70147845
:100C66006AE26404700218E27009786BE2540F6459
:100C76000A60027FFEEF7049FE7866E2FB08E2FA40
:100C860008E2F98E82758300120B70FD746B2EF8E4
:100C9600EDF20EEEB410E278CB74FEF2087400F2B8
:100CA60008746FF27BFE7A00796B7D04120D0AE4FC
:100CB6007869F208F2740612077CEF64FE6002E4BB
:100CC600FFEF7029786B74B0F27865E2786C120CDD
:100CD600F412077AEF7014786AE26404700218E27C
:0D0CE6007009786BE2540F640A60027FFE13
:010CF30022DE
:04096600787DEDF2B9
:10096A00788074C2F208EFF278CB74FEF208740051
:10097A00F2087482F27BFE7A0079807D02120D0AF7
:10098A0078D17404F20874FEF2087400F2087480D4
:10099A00F20874FEF2087400F208747EF27BFE7AA2
:1009AA000079807F0C12079FEF7014787FE264044D
:1009BA00700218E270097880E2540F640A60027FBC
:1009CA00FEEF70507880F208F208F208F278CB74E1
:1009DA00FEF2087400F2087484F27BFE7A007980D1
:1009EA007D04120D0A78D17406F20874FEF20874B6
:1009FA0000F2087480F20874FEF2087400F20874B7
:100A0A007EF27BFE7A0079807F0C12079FEF64FEEC
:100A1A006002E4FFEF60037FFE22788074B0F27810
:100A2A007DE27881F278CB74FEF2087400F20874E1
:100A3A0082F27BFE7A0079807D02120D0A78D174E7
:100A4A0004F20874FEF2087400F2087480F2087462
:100A5A00FEF2087400F208747EF27BFE7A00798056
:100A6A007F0C12079FEF7014787FE26404700218FB
:0E0A7A00E270097880E2540F640A60027FFE89
:010A8800224B
:1010FA0078957450F2E408F278CB74FEF208740022
:10110A00F2087497F27BFE7A0079957D02120D0A35
:10111A0078D17404F20874FEF2087400F208749527
:10112A00F20874FEF2087400F2087493F27BFE7AF5
:0E113A000079957F0C12079F7892EFF27F00EC
:011148002284
:100CF400F278CB74FEF2087400F208746DF27A0094
:060D0400796B7BFE7D020D
:0D0D0A0078C7EBF208EAF208E9F208EDF212
:100D17007D047F0512130A1212177D807F0A1213B2
:100D27002AE478CEF278CAE2FF78CEE2FEC39F507B
:100D37001F78C7E2FB08E2FA08E2F98E82758300A2
:100D4700120B70FD7F0912121B78CEE204F280D5D8
:100D57007D037F0112121B78CE74FFF27F051211FB
:100D6700DA78CEE214F2E26004EF30E2EF7F22128B
:100D770011DA78CBE2FB08E2FA08E2F9EF120B9DF1
:100D87007F211211DA78CBE2FB08E2FA08E2F99048
:060D97000001EF020BAFAA
:10119000D2A300C2A300D2A37F0A7E001212E77D71
:1011A0000F7F0112121B007D3D7F1112121B7D1E4D
:1011B0007F2D12121BE4FD7F2C12121B7D8D7F2AC6
:1011C00012121B7D3E7F2B12121B7D407F151212C7
:0411D0001B7F00225F
:0611D400AC07AB05E4FED0
:1011DA00E4FEC2A6C2A7EF25E0547E4480FF7D0844
:1011EA00EF30E703D38001C392A5D2A6EF25E0FF33
:1011FA00C2A6DDEC7D08D2A6EE25E0FEA2A4E43369
:0C120A004EFEC2A6DDF0D2A7D2A6AF06B1
:0112160022B5
:04121700E4FD7F0172
:10121B00C2A6C2A7EF25E0547EFF7E08EF30E7039E
:10122B00D38001C392A5D2A6EF25E0FFC2A6DEECC8
:10123B007E08ED30E703D38001C392A5D2A6ED253E
:0A124B00E0FDC2A6DEECD2A7D2A699
:011255002276
:0D132A001211D4AE07AF04EB4EFD02121BF2
:05130500F27D087F08E5
:0E130A001211D4AE07AF04EBF45EFD02121B0D
:10077A00740478D1F20874FEF2087400F208746BFB
:10078A00F20874FEF2087400F2087469F27A0079C9
:05079A006B7BFE7F0CEB
:0E079F0078CEEBF208EAF208E9F278CDEFF23C
:1007AD0078D874FEF2E408F208F2EF24F4600F2416
:1007BD00FE701478D97412F2087410F2800978D989
:1007CD007477F2087430F278D9E24480FD7F02121A
:1007DD00121B7D807F0412130A1212177D807F0A6F
:1007ED0012132AE478DCF208F278D1E2FF78DCE229
:1007FD00FC08E2FDC39FEC9400502478CEE2FB0888
:10080D00E2FA08E2F98D828C83120B70FD7F0912DA
:10081D00121B78DDE22401F218E23400F280CA786E
:10082D00CDE2FD7F0112121BE2B40C077D807F0D1E
:10083D0012132A78DC7402F2087458F27F04121134
:10084D00DA78DBEFF278DDE224FFF218E234FFF222
:10085D0008E2700218E2600E78DBE2FF20E0071874
:10086D00E2FEEF5E60D67D807F0D12130A78DDE229
:10087D00700218E270030209577F061211DAEF5465
:10088D001B600302095278D8F208E2FF78DBE25FC1
:10089D0030E00578D874FFF278CDE2640C60030285
:1008AD0009577F0A1211DA78DBEFF27F0C1211DA99
:1008BD00EF5407FD6025E224FFFFE434FFFEEF78DF
:1008CD0003C333CE33CED8F97C002DFFEC3EF9783F
:1008DD00D5E2FB08E2FA08E2C9801478DBE275F094
:1008ED0008A4FF78D5E2FB08E2FA08E2F9E5F08FFB
:1008FD00F0120BD178DBE2700204F278DBE2D394D4
:10090D001240037412F2E478DCF208F278DBE2FFB5
:10091D00C378DDE29F18E29400502F7F091211DA9F
:10092D0078D2E2FB08E2FA08E2F978DCE2FC08E2B0
:10093D00F5828C83EF120BAF78DDE22401F218E221
:10094D003400F280C778D874FEF27D807F0C1213CC
:08095D002A12121778D8E2FFFC
:01096500226F
:101318007F141211DAEF540370077D037F14121340
:011328002A9A
:0113290022A1
:071337007D037F1402130A7D
:03000000020F6D7F
:0C0F6D00787FE4F6D8FD758121020FB4F6
:100B7000BB010CE58229F582E5833AF583E022503A
:100B800006E92582F8E622BBFE06E92582F8E22284
:0D0B9000E58229F582E5833AF583E493229E
:100B9D00BB010689828A83F0225002F722BBFE0137
:020BAD00F32231
:100BAF00F8BB010DE58229F582E5833AF583E8F07C
:100BBF00225006E92582C8F622BBFE05E92582C828
:020BCF00F22210
:100BD100BB010A89828A83F0E5F0A3F0225006F76F
:0F0BE10009A7F01922BBFE06F3E5F009F319226C
:10041F00E50824B3F8E205082278B030070278B374
:10042F00E475F001120C09020BF02000EB7F2ED2C5
:10043F00008018EF540F2490D43440D4FF30040BB5
:10044F00EF24BFB41A0050032461FFE509600215C1
:10045F0009050CE50C7002050B30070D78B0E4753B
:10046F00F001120C09EF020B9D0212817403D207E7
:10047F008003E4C207F50878B0120C19E4F509F50A
:10048F000BF50CE50960077F2012045A80F5750AF9
:10049F00FFC201C200C202C203C205C206C20812D5
:1004AF000428FF700D3007057F0012046BAF0CAEF0
:1004BF000B22B4255FC2D5C204120428FF24D0B486
:1004CF000A00501A75F00A780930D50508B6FF01F1
:1004DF0006C6A426F620D5047002D20380D924CFF5
:1004EF00B41A00EF5004C2E5D20402066AD20180AA
:1004FF00C6D20080C0D20280BCD2D580BAD20580CD
:10050F00B47F2012045A2002077401B5090040F18C
:10051F0012041FFF12045A020492D208D2068095C9
:10052F0012041FFB12041FFA12041FF94A4B700624
:10053F00793B7A077BFF20022EE509602A7E008E29
:10054F0082758300120B7060060EEE650A70F0C2A2
:10055F00D5EBC0E0EAC0E0E9C0E0EE1206B1D0E0B2
:10056F00F9D0E0FAD0E0FB120BF0FF60AAEBC0E08D
:10057F00EAC0E0E9C0E012045AD0E02401F9D0E06B
:10058F003400FAD0E0FBE50A0460DCD50AD9808795
:10059F007BFF7A0679ADD202809C791080027908B0
:1005AF00C206C2088008D2D5790A8004790AC2D55A
:1005BF00E50A047002F50AE4FAFDFEFF12041FFCBF
:1005CF007B0820011312041FFD7B1030000A120458
:1005DF001FFE12041FFF7B20EC3382D592D55013E0
:1005EF00C3E43000069FFFE49EFEE42001039DFD5F
:1005FF00E49CFCE4CBF8C201EC700CCFCECDCCE880
:10060F0024F8F870F38017C3EF33FFEE33FEED33AA
:10061F00FDEC33FCEB33FB994002FB0FD8E9EB30D9
:10062F000105F8D0E0C448B201C0E00AEC4D4E4FCE
:10063F0078207B0070C2EAB50A0040BCC0E0120609
:10064F00B3D0F0D0E0200104C4C0E0C4B201C0F0C8
:10065F00120443D0F0D5F0EB020492120C22052FB6
:10066F005305A95805004C04FC4205AD4F05B54490
:10067F0005B54905154305BB55059F46059F45051E
:01068F009FCB
:1006900047075B5005042D05082E052B2B050C2361
:1006A00005292007442A04C448000005233F3F3F92
:1006B00000790AA2D5200314300509B910020404F8
:1006C000B9080104A2D52006025001042002689254
:1006D00002B509005034C0E07F203003197F30A2FA
:1006E0000272067205500F12070AC202C206C20544
:1006F000C2087F30800F300503E9C0E012045A3091
:100700000503D0E0F9D0E0B509CC3005177F30B94A
:10071000100C12045A7F583004077F788003B90800
:100720000312045A3002057F2D02045A7F2020084C
:10073000F87F2B2006F322920280CF286E756C6C16
:100740002900D20112041F3001F8C201780930D506
:100750000108F60204C42D5043495812041F240313
:10076000B405004001E49007569312044B743A120A
:0A077000044BD2037509040205A929
:100F7900020003E493A3F8E493A34003F68001F28B
:100F890008DFF48029E493A3F85407240CC8C33379
:100F9900C4540F4420C8834004F456800146F6DF48
:100FA900E4800B0102040810204080901149E47E7E
:100FB900019360BCA3FF543F30E509541FFEE4933D
:100FC900A360010ECF54C025E060A840B8E493A304
:100FD900FAE493A3F8E493A3C8C582C8CAC583CA2F
:100FE900F0A3C8C582C8CAC583CADFE9DEE780BEE7
:01118F00005F
:100BF000BB010689828A83E0225002E722BBFE0203
:090C0000E32289828A83E4932235
:100C0900FAE2FB0808E2F925F0F218E2CA3AF22200
:090C1900EBF208EAF208E9F2220C
:100C2200D083D082F8E4937012740193700DA3A361
:100C320093F8740193F5828883E473740293686075
:060C4200EFA3A3A380DF75
:10128100EFB40A07740D12128C740A309811A899E0
:10129100B8130CC2983098FDA899C298B811F630CD
:0712A10099FDC299F59922A5
:00000001FF
